:020000040800F2
:1000000000000220F9480008F9270008012800082C
:100010000328000805280008072800080000000041
:100020000000000000000000000000000928000897
:100030000B280008000000000D2800080F28000809
:100040004949000849490008494900084949000848
:100050004949000849490008494900084949000838
:100060004949000849490008494900084949000828
:100070004949000849490008494900084949000818
:1000800049490008494900084949000800000000A2
:1000900000000000000000000000000049490008C6
:1000A00049490008494900084949000849490008E8
:1000B00049490008494900084949000849490008D8
:1000C00049490008494900084949000849490008C8
:1000D0004949000849490008494900080000000052
:1000E0004949000849490008494900080000000042
:1000F0000000000000000000000000004949000866
:100100000000000049490008494900084949000821
:1001100000000000000000000000000000000000DF
:1001200049490008494900081928000849490008B8
:100130004949000800000000000000000000000025
:100140000000000000000000000000002928000856
:100150004949000849490008494900084949000837
:10016000494900084949000800000000000000005B
:10017000000000000000000000000000000000007F
:1001800000000000494900080000000000000000D5
:08019000494900084949000833
:1001980053B94AB9002908BF00281CBF4FF0FF31E6
:1001A8004FF0FF3000F00CB8ADF1080C6DE904CE4B
:1001B80004F002FCDDF804E0DDE9022304B0704736
:1001C800704700BF10B5054C237833B9044B13B101
:1001D8000448AFF300800123237010BDF80000200D
:1001E80000000000B84C000808B5034B1BB10349D8
:1001F8000348AFF3008008BD00000000FC000020A9
:10020800B84C000800B583B000210191094B1A6B66
:1002180042F480021A631B6B03F480030193019B71
:100228000A463A2000F0B2FB3A2000F0BFFB03B0C8
:100238005DF804FB003802402DE9F04188B003ADB9
:100248000024039404940594069407940094214B85
:100258001A6B42F080021A631A6B02F08002009255
:10026800009A01941A6B42F001021A631A6B02F0A9
:1002780001020192019A02941A6B42F002021A6377
:100288001B6B03F002030293029BDFF850802246A7
:100298001821404600F08AFE0F4E224642F2010124
:1002A800304600F083FE1823039301270497059432
:1002B80006942946404600F095FD42F20103039357
:1002C8000497059406942946304600F08BFD08B043
:1002D800BDE8F081003802400004024000000240FE
:1002E80008B50268064B9A4200D008BD01221021C9
:1002F800044800F05BFE044B00221A70F5E700BFCB
:1003080000300140000002401801002038B50E4BB3
:100318001B685C18B4F5A04F0BD90B4B1B68B3F5E1
:10032800A04F05D3094B01221A70074B00221A600F
:1003380038BD0A4606490D680146E81804F02EFB48
:10034800014B1C60E9E700BF1401002019010020DF
:100358002001002010B582B0030A8DF804308DF812
:100368000500002201210B4800F020FE0A4C002263
:100378001021204600F01AFE6423022201A9074832
:1003880002F093F801221021204600F00FFE02B07F
:1003980010BD00BF000402400000024084A30020FA
:1003A80010B582B0030A8DF804308DF805000122DB
:1003B80011460B4800F0FAFD0A4C00221021204695
:1003C80000F0F4FD6423022201A9074802F06DF849
:1003D80001221021204600F0E9FD02B010BD00BF47
:1003E800000402400000024084A3002038B50446FF
:1003F80000E000BF104B1B78002BFAD101250E4BF3
:100408001D700820FFF7A6FF0020FFF7C9FF09208D
:10041800FFF7A0FF2A462946084800F0C7FD00223A
:100428001021074800F0C2FD4FF4A24221460548BA
:1004380002F01EF938BD00BF180100200004024078
:100448000000024084A3002010B50820FFF782FFB7
:100458000020FFF7A5FF0920FFF77CFF01221146C6
:100468000B4800F0A3FD0B4C00221021204600F0A1
:100478009DFD4FF47A734FF4A24207490968074873
:1004880002F013F801221021204600F08FFD10BD64
:1004980000040240000002402001002084A3002044
:1004A800FF281BD8A12919D810B402F00F020C4B51
:1004B8001C68430803EBC11310F0010F08D1E15C7D
:1004C80001F00F0141EA0212E2545DF8044B704753
:1004D800E15C21F00F010A43E254F6E7704700BFE0
:1004E8002001002072B6FEE710B594B008AC3022A7
:1004F8000021204604F025FA002303930493059372
:10050800069307930193214A116C41F080511164BD
:10051800126C02F080520192019A02931C4B1A68E5
:1005280042F440421A601B6803F440430293029B62
:10053800012308934FF48033099302230E934FF459
:1005480080030F930F231093902311930423129386
:1005580005231393204601F087FB90B90F230393DB
:1005680002230493002305934FF4805206920793C5
:10057800012103A801F0CEFD28B901F071FD14B0E6
:1005880010BDFFF7AFFFFFF7ADFF00BF0038024017
:100598000070004038B500F065F9FFF7A5FFFFF7D8
:1005A8004BFEFFF72FFE00F0BFF802F00DFF4FF4EF
:1005B8007A7000F083F9544C00220821204600F09C
:1005C800F5FC142000F07AF901220821204600F0F9
:1005D800EDFC142000F072F90020FFF7BBFE0120AB
:1005E800FFF7DEFE052000F069F90120FFF7B2FEF3
:1005F8000020FFF7D5FE2320FFF7ACFE0320FFF70E
:10060800CFFE2820FFF7A6FE8820FFF7C9FE0420AA
:10061800FFF7A0FE6520FFF7C3FE0220FFF79AFE52
:100628004FF48A70FFF7BCFE0520FFF793FE6120A8
:10063800FFF7B6FE0320FFF78DFE4FF41460FFF7B7
:10064800AFFE0F2000F03AF90320FFF783FE4FF4C6
:100658003660FFF7A5FE0F2000F030F90320FFF702
:1006680079FE4FF47760FFF79BFE0F2000F026F924
:100678000720FFF76FFE0120FFF792FE2348244B67
:100688001860244C244B1C604FF4A2452A460021D4
:1006980004F057F92A460021204604F052F9202593
:1006A80012E005EBD5725210534202F00F0203F02C
:1006B8000F0358BF5A42D2B2A1B2A8B2FFF7F0FE58
:1006C80001347F2CEDDD0135DF2D01DC2024F8E736
:1006D800FFF7BAFE114803F0E5F80CE000BF104B35
:1006E8001B78002BFAD10A4A11680B4B1868106066
:1006F8001960FFF77BFE0B4B1B78002BFBD0094BD7
:1007080000221A70EBE700BF0000024024520020CC
:100718001C0100202401002020010020E0A300206B
:10072800180100201901002008B50E480E4B03607F
:100738004FF48273436000238360C36003614361A5
:100748004FF4007282610822C261036243628362CD
:100758000A23C36201F04AFE00B908BDFFF7C2FED2
:10076800FBE700BF84A300200030014030B589B00A
:100778000023039304930593069307930268224B7F
:100788009A4201D009B030BD04460025019503F511
:1007980084335A6C42F480525A645A6C02F4805280
:1007A8000192019A02951A6B42F001021A631B6BBF
:1007B80003F001030293029BA023039302230493F3
:1007C800032306930523079303A9104800F00AFBA7
:1007D8000F48104B03604FF08063436040238360F1
:1007E800C5604FF48063036145618561C561056239
:1007F800456200F06FF918B9054BA3649C63C1E723
:10080800FFF770FEF8E700BF00300140000002402B
:1008180024A300204064024010B504460E4B1A7809
:100828004FF47A73B3FBF2F30C4A1068B0FBF3F0A1
:1008380000F0C0F868B90F2C01D901200AE00022A5
:1008480021464FF0FF3000F0A1F8054B1C60002056
:1008580000E0012010BD00BF0000002008000020BB
:100868000400002008B50B4B1A6842F400721A60A5
:100878001A6842F480621A601A6842F480721A6038
:10088800032000F071F80F20FFF7C6FF00F094FB7B
:10089800002008BD003C0240034A1168034B1B7846
:1008A8000B441360704700BFDCA300200000002049
:1008B800014B1868704700BFDCA3002038B5044618
:1008C800FFF7F6FF0546B4F1FF3F02D0044B1B7853
:1008D8001C44FFF7EDFF401BA042FAD338BD00BF10
:1008E80000000020002807DB00F01F024009012358
:1008F8009340024A42F82030704700BF00E100E010
:10090800002808DB0901C9B200F1604000F5614028
:1009180080F80013704700F00F000901C9B2014BBD
:100928001954704714ED00E000B500F00700C0F15D
:10093800070CBCF1040F28BF4FF0040C031D062B55
:100948000FD9C31E4FF0FF3E0EFA0CF021EA00014A
:1009580099400EFA03FE22EA0E0241EA02005DF80F
:1009680004FB0023EEE70000074AD36823F4E063A2
:100978001B041B0C000200F4E060034343F0BF6358
:1009880043F40033D360704700ED00E010B504462F
:10099800054BD868C0F30220FFF7C6FF0146204682
:1009A800FFF7AEFF10BD00BF00ED00E008B5FFF790
:1009B80099FF08BD0138B0F1807F0BD24FF0E023DA
:1009C8005861054AF02182F8231000209861072217
:1009D8001A6170470120704700ED00E030B40568E7
:1009E8002C6824F480242C60046863608368402B9E
:1009F80005D0036899600368DA6030BC7047036803
:100A08009A600368D960F8E710B40368D9B210395E
:100A18000A4AA2FB01421209094CA25CC2655F297D
:100A280007D96FF3090304338365806D5DF8044BC0
:100A380070476FF309038365F7E700BFABAAAAAA5B
:100A4800D04C0008836A826992B9012B0AD0022B24
:100A580002D00BB100207047C36A13F0807F28D101
:100A680000207047C36AB3F1C07F24D000207047CC
:100A7800B2F5005F09D0022B25D9032B25D1C36A13
:100A880013F0807F23D100207047032B03D8DFE8C1
:100A980003F01404140A00207047C36A13F0807F1F
:100AA8000DD100207047C36AB3F1C07F09D0002080
:100AB80070470120704701207047012070470120CE
:100AC80070470120704701207047002070470120BF
:100AD8007047000070B50446FFF7EAFE002C5BD0B3
:100AE8000546022384F83530002384F83430226820
:100AF800136823F00103136023681A6812F0010FCA
:100B08000AD0FFF7D5FE431B052BF5D920236365D3
:100B1800032084F8350070BD1A68204911406268C6
:100B2800A0680243E0680243206902436069024307
:100B3800A0690243E0690243206A02430A43616AEA
:100B480004291ED01A602668756925F00705636AAE
:100B58001D43042B07D1A36A1D43E36A1BB120463A
:100B6800FFF770FF90B975612046FFF74DFFE26D02
:100B78003F239340836000206065012384F835306B
:100B8800C9E7E16A206B01430A43DBE74023636559
:100B9800012084F83500BEE70120BCE73F8010F053
:100BA80038B50446856D90F8340001282AD0012014
:100BB80084F8340094F83500012804D0002384F820
:100BC8003430022038BD022084F8350000206065EA
:100BD8002046FFF703FFE26D3F239340AB60226896
:100BE800136843F016031360236C23B1226813685B
:100BF80043F0080313602268136843F0010313608D
:100C08000020DFE70220DDE7F0B583B004460023CB
:100C18000193724B1D68724BA3FB0535AD0A876DB6
:100C28003E68C26D08239340334210D003681A68A7
:100C380012F0040F0BD01A6822F004021A60C26D79
:100C480008239340BB60436D43F001034365E26DA5
:100C580001239340334209D02268526912F0800F71
:100C680004D0BB60636D43F002036365E26D042347
:100C78009340334209D02268126812F0020F04D060
:100C8800BB60636D43F004036365E26D102393401A
:100C9800334224D02268126812F0080F1FD0BB60BC
:100CA80023681A6812F4802F0DD01B6813F4002FE4
:100CB80004D1236C9BB12046984710E0A36C73B114
:100CC800204698470BE01A6812F4807F03D11A680F
:100CD80022F008021A60236C0BB120469847E26D97
:100CE80020239340334254D02268126812F0100F28
:100CF8004FD0BB6094F83530052B0ED023681A68A6
:100D080012F4802F33D01B6813F4002F2AD1636CA0
:100D1800002B3ED0204698473BE02268136823F01A
:100D2800160313602268536923F080035361236C10
:100D3800A3B12268136823F008031360E26D3F2310
:100D48009340BB60012384F83530002384F83430A5
:100D5800236D002B3FD0204698473CE0A36C002B26
:100D6800E7D1EBE7E36BA3B12046984711E01A6897
:100D780012F4807F09D11A6822F010021A60012348
:100D880084F83530002384F83430E36B0BB1204607
:100D98009847636DFBB1636D13F0010F17D00523FE
:100DA80084F835302268136823F001031360019B2F
:100DB80001330193AB4204D823681B6813F0010F79
:100DC800F5D1012384F83530002384F83430E36CFE
:100DD8000BB12046984703B0F0BD00BF08000020C3
:100DE800B5814E1B00230F2B00F2D78070B582B05F
:100DF80065E085684FEA430E032404FA0EF425EAF9
:100E08000405CC6804FA0EF42C438460446824EA90
:100E180002044A68C2F300129A40224342605CE02E
:100E2800DC08083450F8242003F00705AD004FF023
:100E38000F0E0EFA05FE22EA0E0E0A69AA4042EAD1
:100E48000E0240F824205CE0042200E0002202FAAE
:100E58000EF22A430234514D45F82420504A946832
:100E68006FEA0C0224EA0C054E6816F4801F01D0C4
:100E78004CEA04054A4CA560E46802EA04054E6899
:100E880016F4001F01D04CEA0405454CE56064687F
:100E980002EA04054E6816F4003F01D04CEA040546
:100EA8003F4C6560246822404D6815F4803F01D0AE
:100EB8004CEA04023A4C226001330F2B6BD8012212
:100EC8009A400C6804EA020C32EA0404F4D14C6833
:100ED80004F00304013C012C8BD94A6802F0030298
:100EE800032A09D0C4685D000322AA4024EA020448
:100EF8008A68AA402243C2604A6802F00302022AB2
:100F08008ED004684FEA430E032202FA0EF224EA56
:100F180002044A6802F0030202FA0EF22243026057
:100F28004A6812F4403FC7D0002201921D4A546C0F
:100F380044F480445464526C02F480420192019A51
:100F48009C08A51C154A52F8255003F0030E4FEAD9
:100F58008E0E0F2202FA0EF225EA0205124A90427C
:100F68003FF474AF02F5806290420ED002F58062C1
:100F780090420CD002F5806290420AD002F580625D
:100F880090423FF461AF072261E701225FE7022246
:100F98005DE703225BE702B070BD7047003801408F
:100FA800003C014000380240000002400AB1816163
:100FB800704709048161704782B0002100910B4B92
:100FC8005A6C42F480425A645A6C02F4804200928D
:100FD800009A01911A6C42F080521A641B6C03F05B
:100FE80080530193019B02B0704700BF0038024054
:100FF8002DE9F04383B0D0F8008001EBC10300EB8A
:1010080083039A6A5B6A9A4254D807460C469B1A2D
:1010180001EBC10200EB8202D2699A4200D31A4660
:1010280002F103094FEA990915E006F103094FEAAD
:101038009909BB7904EBC40507EB8505296A009378
:10104800B3B2E2B2404601F030FF2B6A33442B6260
:10105800AB6A3344AB6208EB441303F510639B6936
:101068009BB24B4512D304EBC40307EB83039A6A84
:101078005B6A9A420AD24BB19B1A04EBC40207EB93
:101088008202D6699E42D0D31E46CEE704EBC40343
:1010980007EB83077A6ABB6A9A420FD804F00F04F9
:1010A8000122A240D8F8343823EA0203C8F83438B9
:1010B800002000E0012003B0BDE8F0830020FAE73B
:1010C80030B583B000287AD00446056890F8953486
:1010D800C3B1032384F89534B5F1A04F17D0206825
:1010E80001F094FC237C8DF80030231D0ECB206882
:1010F80001F0CAFB70B1022384F895340125284613
:1011080003B030BD80F8943402F014FCE1E700230A
:10111800A371E4E70021206802F0DDF80246B8B9BF
:1011280003462079984218D903EBC30104EB8101E7
:10113800012048750B75CB8500200876C8610862C8
:1011480003EBC30104EB810148620133DBB2E8E73A
:10115800022384F895340125D1E7904217D902EB90
:10116800C20304EB8303002183F8551283F8542249
:1011780083F85812C3F85C12C3F8601202EBC2037A
:1011880004EB8303C3F864120132D2B2E5E7237C8F
:101198008DF80030231D0ECB206801F08DFC05462C
:1011A80020B1022384F895340125A8E7002363744D
:1011B800012384F89534206802F04CF89FE7012554
:1011C8009DE7036890F89424012A1AD010B50446C4
:1011D800012280F89424DA6812F0400F02D0427B92
:1011E800012A09D0206801F00BFC206802F024F8DD
:1011F800002084F8940410BD9A6B42F480329A63FC
:10120800F0E702207047000070B504460D460068FC
:10121800066C00EB411303F530639A68A179012944
:1012280011D038498E4256D03DB905EBC50304EBC1
:101238008303D3F86432002B5ED0E9B2204602F073
:10124800C5FB002070BD12F0080F09D02E498E4250
:10125800F7D912F4004FF4D04FF400429A60F0E747
:1012680012F0200F02D020229A60EAE712F0280F2D
:10127800E7D125498E4206D912F4004F03D04FF426
:1012880000429A60DDE705EBC50204EB8202D2F862
:1012980074121B69C3F31203CB1AC2F868327DB902
:1012A80005EBC50204EB8202D2F864226AB105EBB1
:1012B800C50204EB8202D2F860121944C2F8601227
:1012C800E9B2204602F082FBBBE704F29C4201210E
:1012D80002F040F8F4E712F4004F03D04FF4004254
:1012E8009A60AEE712F0200F01D020229A60E9B28E
:1012F800204602F06BFBA4E704F29C42002102F0B6
:1013080029F89AE70A31544F0A30544F38B5044641
:1013180003681D6C03EB4113D3F8081B0E4A954272
:1013280007D903F5306311F4004F02D04FF400429F
:101338009A60204602F042FB074B9D4202D9A379EE
:10134800012B01D0002038BD04F29C420121206805
:1013580002F000F8F6E700BF0A30544F90F89434D2
:10136800012B0CD010B50446012380F89434417445
:10137800006801F051FF002084F8940410BD022099
:10138800704738B505468C4611F0800F2BD101F017
:101398000F0E0EEBCE04A40004F514740444211DB2
:1013A8000EEBCE0E00EB8E0E00208EF855020CF0E0
:1013B8000F0C81F800C0C2F30A028A600B714A78E8
:1013C8000AB1A1F81AC0022B1CD095F89434012B4D
:1013D8001BD0012385F89434286801F04AFC0020CA
:1013E80085F8940438BD01F00F0000EBC0018900B6
:1013F80010312944043100EBC00005EB80000124C2
:101408004475D4E700234B71DFE70220EAE710B503
:1014180004460A4611F0800F20D101F00F0000EBBE
:10142800C0039B0003F514732344191D00EBC0008F
:1014380004EB8000002380F8553202F00F020A7096
:1014480094F89434012B18D0012384F8943420683C
:1014580001F05CFC002084F8940410BD01F00F003A
:1014680000EBC0039B0010332344191D00EBC000A0
:1014780004EB800001234375DFE70220EDE710B598
:10148800144601F00F0C0CEBCC01890001F5147126
:10149800014404310CEBCC0E00EB8E0ECEF860222A
:1014A800CEF864320023CEF868328EF855328EF8C2
:1014B80054C28279012A04D0006801F00DFD002091
:1014C80010BDCEF87042F7E701F00F0101EBC10142
:1014D80000EB8100D0F86802704710B5144601F09F
:1014E8000F0C0CEBCC0189001031014404310CEBDA
:1014F800CC0E00EB8E0ECEF82020CEF82430002340
:10150800CEF8283001238EF815308EF814C0827971
:101518009A4204D0006801F0DFFC002010BDCEF82C
:101528003040F7E738B501F00F050279AA4238D301
:1015380004460B4611F0800F1FD101EBC101890051
:1015480001F514710144043103EBC30300EB830379
:10155800002283F8552201238B700D7094F894347F
:10156800012B20D0012384F89434206801F0F9FD80
:1015780085B1002084F8940438BD05EBC5018900C5
:1015880010310144043105EBC50300EB830301224C
:101598005A75E0E704F29C42A179206801F0DAFE6E
:1015A800E7E70120E8E70220E6E701F00F03027908
:1015B8009A4230D310B5044611F0800F1ED103EBC8
:1015C800C301890001F514710144043103EBC3021E
:1015D80000EB8202002082F8550200228A700B700C
:1015E80094F89434012B18D0012384F8943420689B
:1015F80001F0E4FD002084F8940410BD03EBC3015E
:10160800890010310144043103EBC30200EB82026C
:1016180001205075E1E7012070470220EDE708B589
:1016280011F0800F0CD101F00F0101EBC10189000D
:1016380001F5147101440431006801F0D7FB08BDBD
:1016480001F00F0101EBC10189001031014404319F
:10165800F2E72DE9F04F83B004460568284601F00B
:1016680036FE10B103B0BDE8F08F0646206801F0E1
:10167800FFFD0028F6D005F50067BB68C3F30D230E
:10168800C4F8D434206801F0F3FD10F0020F04D040
:101698002268536903F002035361206801F0E8FDF2
:1016A80010F0100F15D02268936923F0100393618E
:1016B800D5F8208008F00F0908F4F013B3F5802F4F
:1016C8004CD0B3F5402F6FD02268936943F01003D4
:1016D8009361206801F0CCFD10F4002F76D12068CA
:1016E80001F0C6FD10F4802F40F0E080206801F082
:1016F800BFFD0028C0F26181206801F0B9FD10F437
:10170800006F09D0BB6813F0010F40F06E812268AA
:10171800536903F400635361206801F0A9FD10F4D4
:10172800805F40F06681206801F0A2FD10F4005F40
:1017380040F0B381206801F09BFD10F0080F40F0E5
:10174800C481206801F094FD10F0800F00F0D7816B
:10175800AB6923F08003AB610126C0E147F6F07363
:1017680018EA030FB0D04FEA181A4FEAC9030193D9
:1017780009EBC90B04EB8B0BC8F30A12DBF86012F8
:10178800284601F0CBFCDBF86032CAF30A0A53445E
:10179800CBF86032DBF86832019A4A4404EB8202E3
:1017A8005344C2F868328FE7082204F29C41284665
:1017B80001F0B4FC09EBC90304EB8303D3F86822F6
:1017C800C8F30A184244C3F868227DE7206801F08C
:1017D80053FD8046B14635E005EB49130122C3F8B5
:1017E800082B49462046FFF70FFD3CE005EB49135F
:1017F8000822C3F8082B49462046FFF787FD35E045
:1018080009EBC90304EB830393F85732012B41D04A
:1018180005EB49130222C3F8082B1AF0200F04D055
:1018280005EB49132022C3F8082B1AF4005F05D0F2
:1018380005EB49134FF40052C3F8082B09F10109CD
:101848004FEA5808B8F1000F3FF449AF18F0010FFC
:10185800F4D05FFA89FB5946206801F01DFD8246E5
:1018680010F0010FB8D11AF0080FBFD11AF0100FFD
:1018780004D005EB49131022C3F8082B1AF0020F05
:10188800CBD06B6913F0800FBAD07B6843F48063C8
:101898007B60B5E709EBC90304EB8303002283F8F7
:1018A80057225946204602F0DFF8B1E7206801F0D8
:1018B800EBFC8046B14625E05946204602F092F8F6
:1018C8001AF0080F04D005EB49130822C3F80829B9
:1018D8001AF0100F04D005EB49131022C3F8082999
:1018E8001AF0400F04D005EB49134022C3F8082929
:1018F8001AF0020F40D11AF0800F59D109F10109ED
:101908004FEA5808B8F1000F3FF4F0AE18F0010F95
:10191800F4D05FFA89FB5946206801F0C6FC82467C
:1019280010F0010FCCD009F00F02012101FA02F2E8
:101938007B6B23EA02037B6305EB4913C3F80819A1
:10194800A3798B42B8D109EBC90304EB83031A6A64
:10195800D9690A441A62B9F1000FADD109EBC9037C
:1019680004EB83035B6A002BA6D104F29C4201219D
:10197800206801F0EFFC9FE74946284601F04CF843
:1019880009EBC90304EB8303DB7D012B05D005EBD1
:1019980049130222C3F80829ADE709EBC90304EB90
:1019A80083030022DA755946204602F063F8EEE711
:1019B80049462046FFF71CFBA0E77B6823F001039C
:1019C8007B6094F8CC34012B08D0204602F046F80E
:1019D8002268536903F0004353618DE6002184F8BF
:1019E800CC14204600F03EF9F2E7204602F01EF83B
:1019F8008DE67B6823F001037B601021206801F0ED
:101A08000BF81AE005EB46134FF67F31C3F80819B7
:101A1800D3F8002922F40012C3F80029C3F8081BE0
:101A2800D3F8002B22F40012C3F8002BD3F8002BB4
:101A380042F00062C3F8002B01362379B342E1D8A3
:101A4800FB6943F00113FB61E37BDBB1D7F884301A
:101A580043F00B03C7F884307B6C43F00B037B64C3
:101A6800D5F8003823F4FE63C5F8003804F29C4228
:101A7800A179206801F06EFC2268536903F4805351
:101A8800536150E67B6943F4005343F02B037B61B9
:101A98003B6943F00B033B61E2E7206801F04CFC33
:101AA800206801F0D5F8E071266800F0E3FB0146F4
:101AB800E279304600F032FF204601F0A4FF2268A8
:101AC800536903F40053536134E6204601F095FF4F
:101AD8002268536903F00803536132E6013623791B
:101AE800B3420CD906EBC60304EB830393F85732D1
:101AF800012BF3D1F1B22046FFF791FDEEE7206804
:101B080001F0B6FB10F4801F25D1206801F0B0FB6E
:101B180010F4001F58D0012326E001362379B34280
:101B28001BD905EB4613D3F8002906EBC60304EBD3
:101B380083031B7E012BF0D1002AEEDA06EBC603E5
:101B480004EB83030122DA7566F07F01C9B22046EF
:101B5800FFF765FDE1E70126E0E72268536903F432
:101B680080135361D1E7013322799A4227D905EBD3
:101B78004312D2F8001B03EBC30204EB820292F873
:101B88005822012AEFD10029EDDAD4F8D42482EAC8
:101B9800114212F0010FE6D103EBC30204EB8202FB
:101BA800012182F85712AA6942F08002AA616A6983
:101BB80012F0800FD7D17B6843F400737B602268F2
:101BC800536903F400135361206801F051FB10F0CE
:101BD800804F10D1206801F04BFB10F0040F3FF448
:101BE80041AD23685D6815F0040F0DD12268536874
:101BF8002B43536036E5204601F042FF22685369C3
:101C080003F080435361E5E7204601F03FFFEDE72D
:101C180010B40468606A31B940EA0240A06200204A
:101C28005DF8044B70478C46A36A00EB1340002311
:101C380008E003F1400104EB8101496800EB114021
:101C48000133DBB20CF1FF318B42F2D340EA0240A0
:101C58000CF13F0104EB81046060E0E7036859621E
:101C68000020704770470000002800F0E08170B540
:101C780082B00446036813F0010F3BD09F4B9B686A
:101C880003F00C03042B2CD09C4B9B6803F00C0333
:101C9800082B21D06368B3F5803F4FD0B3F5A02F50
:101CA80052D0964B1A6822F480321A601A6822F4CD
:101CB80080221A606368002B50D0FEF7F9FD0546B4
:101CC8008E4B1B6813F4003F14D1FEF7F1FD401B47
:101CD8006428F5D90320B1E1884B5B6813F4800FC1
:101CE800D8D0864B1B6813F4003F03D06368002BE1
:101CF80000F09F81236813F0020F54D07F4B9B683C
:101D080013F00C0F3ED07D4B9B6803F00C03082B9F
:101D180033D0E368002B68D0794B01221A60FEF7B4
:101D2800C7FD0546754B1B6813F0020F54D1FEF72B
:101D3800BFFD401B0228F5D903207FE16F4A1368D5
:101D480043F480331360B5E76C4B1A6842F4802281
:101D58001A601A6842F480321A60ABE7FEF7A8FDF1
:101D68000546664B1B6813F4003FC3D0FEF7A0FD81
:101D7800401B6428F5D9032060E1604B5B6813F4CD
:101D8800800FC6D15D4B1B6813F0020F03D0E368C8
:101D9800012B40F05081594A136823F0F803216958
:101DA80043EAC1031360236813F0080F42D0636944
:101DB8006BB3534B0122C3F8802EFEF779FD05461D
:101DC8004E4B5B6F13F0020F34D1FEF771FD401BD1
:101DD8000228F5D9032031E1484A136823F0F803B3
:101DE800216943EAC1031360DDE7454B00221A600D
:101DF800FEF75EFD0546414B1B6813F0020FD2D07B
:101E0800FEF756FD401B0228F5D9032016E13C4B8E
:101E18000022C3F8802EFEF74BFD0546374B5B6F5B
:101E280013F0020F06D0FEF743FD401B0228F5D938
:101E3800032003E1236813F0040F77D02F4B1B6CAA
:101E480013F0805F33D1002301932C4B1A6C42F0BE
:101E580080521A641B6C03F080530193019B012587
:101E6800284B1B6813F4807F23D0A368012B34D040
:101E7800052B38D0214B1A6F22F001021A671A6F0E
:101E880022F004021A67A368002B3DD0FEF710FD6C
:101E980006461A4B1B6F13F0020F46D1FEF708FDDA
:101EA800801B41F288339842F3D90320C6E000250D
:101EB800D6E7144A136843F480731360FEF7F8FCFE
:101EC8000646104B1B6813F4807FCED1FEF7F0FC5A
:101ED800801B0228F5D90320B0E0084A136F43F0AD
:101EE80001031367CFE7054B1A6F42F004021A6724
:101EF8001A6F42F001021A67C5E700BF00380240B6
:101F08000000474200700040FEF7D2FC0646524BE4
:101F18001B6F13F0020F08D0FEF7CAFC801B41F2BA
:101F280088339842F3D9032088E0EDB9A369002BE0
:101F380000F08380484A926802F00C02082A51D0C7
:101F4800022B17D0454B00221A66FEF7B1FC044657
:101F5800414B1B6813F0007F42D0FEF7A9FC001B21
:101F68000228F5D9032069E03B4A136C23F080531B
:101F78001364DBE7394B00221A66FEF799FC054625
:101F8800354B1B6813F0007F06D0FEF791FC401B11
:101F98000228F5D9032051E0E369226A1343626AF3
:101FA80043EA8213A26A5208013A43EA0243E26A08
:101FB80043EA0263284A5360284B01221A66FEF757
:101FC80077FC0446244B1B6813F0007F06D1FEF70C
:101FD8006FFC001B0228F5D903202FE000202DE01C
:101FE80000202BE0012B2BD01B4B5B6803F48001F6
:101FF800E269914226D103F03F02216A8A4223D145
:10200800616A47F6C0721A40B2EB811F1ED103F411
:102018004031A26A5208013AB1EB024F18D103F0DD
:102028007063E26AB3EB026F14D1002006E001206E
:102038007047012002E0012000E0002002B070BDDE
:102048000120FBE70120F9E70120F7E70120F5E788
:102058000120F3E70120F1E7003802400000474281
:10206800014B0122DA6470470000474208B5264B4D
:102078009B6803F00C03042B41D0082B41D1224B61
:102088005A6802F03F025B6813F4800F12D01E4BAF
:102098005968C1F388111D480023A1FB0001FEF710
:1020A80077F8194B5B68C3F3014301335B00B0FB5E
:1020B800F3F008BD144B5868C0F388104FEA401C71
:1020C800BCEB000C6EEB0E0E4FEA8E1343EA9C63DA
:1020D8004FEA8C11B1EB0C0163EB0E03DB0043EA12
:1020E8005173C90011EB000C43F10003990200235E
:1020F8004FEA8C2041EA9C51FEF74AF8D1E70348A1
:10210800D7E70348D5E700BF0038024040787D0193
:102118000024F400002800F09B8070B50D460446AA
:102128004F4B1B6803F007038B4208D2CBB24C4AD3
:102138001370136803F007038B4240F08B80236809
:1021480013F0020F17D013F0040F04D0454A936818
:1021580043F4E0539360236813F0080F04D0414A16
:10216800936843F4604393603E4A936823F0F00316
:10217800A1680B439360236813F0010F32D06368A2
:10218800012B21D09A1E012A25D9364A126812F04D
:10219800020F61D033498A6822F0030213438B602F
:1021A800FEF786FB06462F4B9B6803F00C0362681C
:1021B800B3EB820F16D0FEF77BFB801B41F288330E
:1021C8009842F0D9032042E0264A126812F4003FF0
:1021D800E0D101203BE0234A126812F0007FD9D1F8
:1021E800012034E01E4B1B6803F00703AB4207D9FC
:1021F800EAB21B4B1A701B6803F00703AB422DD1E0
:10220800236813F0040F06D0164A936823F4E053AA
:10221800E1680B439360236813F0080F07D0114A55
:10222800936823F46043216943EAC1039360FFF78D
:102238001DFF0C4B9B68C3F303130B4AD35CD840B8
:102248000A4B18600A4B1868FEF7E6FA002070BDC2
:10225800012070470120FAE70120F8E70120F6E79E
:10226800003C024000380240D84C0008080000201A
:1022780004000020014B1868704700BF08000020C8
:102288007047000008B5064BDB6813F0800F00D1DB
:1022980008BDFFF7F5FF024B80229A73F8E700BFED
:1022A800003802402DE9F04782B0054688461746B7
:1022B8001E46FEF7FDFA0A9B1B1A03EB0609FEF7FA
:1022C800F7FA8246284B1B68C3F3CB3309FB03F3A9
:1022D80001932B689C6838EA04040CBF012300238F
:1022E800BB423DD0B6F1FF3FF3D0FEF7E1FAA0EBD9
:1022F8000A00484503D2019B73BB9946E9E72A685F
:10230800536823F0E00353606B68B3F5827F0BD00A
:10231800AB6AB3F5005F14D0012385F85130002370
:1023280085F8503003201CE0AB68B3F5004F02D0AD
:10233800B3F5806FECD12A68136823F0400313606B
:10234800E6E72A68136823F4005313602A681368C1
:1023580043F400531360DFE7019B013B0193B8E7A7
:10236800002002B0BDE8F0870800002070B584B0F6
:1023780004460D46164600920B4601220221FFF73D
:1023880091FFD0B9174B1B68174AA2FB03235B0DBB
:102398004FF47A7202FB03F303936368B3F5827F09
:1023A80011D0039B3BB1039B013B039323689B68BC
:1023B80013F0800FF5D104B070BD636D43F02003B6
:1023C80063650320F7E700962B460022802120460C
:1023D800FFF768FF0028EED0636D43F020036365C4
:1023E8000320E8E708000020819F5E1600285AD0E5
:1023F80010B50446436A33B94368B3F5827F05D004
:102408000023C36102E00023036143610023A36248
:1024180094F85130002B40D0022384F851302268C0
:10242800136823F040031360636803F48273A2689F
:1024380002F404421343E26802F40062134322697F
:1024480002F002021343626902F001021343A26917
:1024580002F400721343E26902F038021343226A5D
:1024680002F080021343A26A02F400522168134367
:102478000B60638B03F00403626A02F010022168A8
:1024880013434B602268D36923F40063D3610020AF
:102498006065012384F8513010BD84F8503020461F
:1024A800FEF764F9B8E7012070472DE9F04383B0DF
:1024B8000446894690461D46FEF7FAF994F85130CD
:1024C800012B40F0CD800646DFB2B9F1000F00F0D5
:1024D800C880B8F1000F00F0C48094F85030012B88
:1024E80000F0C380012384F85030032384F851306E
:1024F80000236365C4F83090A4F83480A4F83680CB
:10250800A363A387E38763642364A368B3F5004FD9
:102518001ED023681A6812F0400F03D11A6842F0DF
:1025280040021A60E368B3F5006F1CD0636813B10A
:10253800B8F1010F5FD1226B236812781A73236BED
:1025480001332363E38E9BB2013B9BB2E38652E0E7
:102558002268136823F0400313602268136843F469
:1025680080431360D5E7636813B1B8F1010F15D143
:10257800226B23681288DA60236B02332363E38EAD
:102588009BB2013B9BB2E38608E0FEF791F9801B02
:10259800A84202D3B5F1FF3F15D1A5B1E38E9BB296
:1025A800002B42D023689A6812F0020FEDD0226BFC
:1025B8001288DA60236B02332363E38E9BB2013BFC
:1025C8009BB2E386EAE7012384F85130002384F8BC
:1025D8005030032745E0226B12781A73236B0133BE
:1025E8002363B4F836C01FFA8CFC0CF1FF3C1FFAC9
:1025F8008CFCA4F836C0E38E9BB2B3B123689A680A
:1026080012F0020FE7D1FEF753F9801BA84202D35C
:10261800B5F1FF3F01D1002DEDD1012384F85130F0
:10262800002384F8503003271BE032462946204611
:10263800FFF79CFE08B120236365A36833B90193B3
:102648002368DA6801929B680193019B012384F84F
:102658005130002384F85030636D13B9002700E02F
:102668000227384603B0BDE8F0830227F9E70000E7
:1026780038B590F85130012B5ED10446DDB20029FF
:102688005BD0002A59D090F85030012B57D0012345
:1026980080F85030032380F85130002343650163EC
:1026A8008286C2868363436403648387C38783689F
:1026B800B3F5004F2DD0A36C224A1A64A36C224AAA
:1026C800DA63A36C214ADA64A36C00221A652268D3
:1026D800E38E9BB20C32216BA06CFEF761FA0146C7
:1026E80010BB23681A6812F0400F03D11A6842F031
:1026F80040021A60002384F850302268536843F07F
:10270800200353602268536843F0020353600D4668
:1027180013E00268136823F040031360026813682B
:1027280043F480431360C6E7636D43F010036365A9
:10273800002384F8503000E00225284638BD0225E1
:10274800FBE700BF5B270008892700086727000808
:10275800704708B5806BFFF7FBFF08BD704708B5E9
:10276800806B0268536823F003035360436D43F0A2
:1027780010034365012380F85130FFF7EFFF08BDD0
:1027880030B583B00546846BFEF792F82B681B685A
:1027980013F4807F23D1024621684B6823F020037D
:1027A8004B6021684B6823F002034B60642120468C
:1027B800FFF7DCFD18B1636D43F020036365A36880
:1027C80033B901932368DA6801929B680193019BEE
:1027D8000023E386012384F85130636D23B9204632
:1027E800FDF77EFD03B030BD2046FFF7B7FFF9E7E0
:1027F80008B5FFF747FDFEE7FEE7FEE7FEE7FEE761
:1028080070477047704708B5FEF746F808BD0000E6
:1028180008B50248FEF7F8F908BD00BF24A3002058
:1028280008B50248FEF715FF08BD00BFDCB8002058
:1028380082B000230193019B01330193019BB3F103
:10284800706F1CD80369002BF5DA0A23019302E0A4
:10285800019B013B0193019B002BF9D1036943F0D4
:1028680001030361019B01330193019BB3F1706F75
:1028780008D8036913F0010FF4D1002000E0032009
:1028880002B070470320FBE784B010B5044603A8E4
:1028980080E80E009DF81130012B21D1A36B23F4A1
:1028A8008033A363E36823F4840323F04003E360E5
:1028B800E36823F44013E3609DF81830012B0AD035
:1028C8002046FFF7B5FF9DF80E30012B1CD0BDE860
:1028D800104004B07047E36843F48013E360EFE707
:1028E800E36843F04003E3602046FFF7A1FF9DF84B
:1028F800153023B9A36B43F48033A363E3E7A36BD9
:1029080023F48033A363DEE7A36843F00603A360E0
:10291800A36843F02003A360D9E70000022A0AD085
:102928000922C36823F47053C360C36843EA82234F
:10293800C36000207047234B0B44234A93422FD98E
:10294800224B0B44224A93422CD9A1F57403A3F5D8
:102958001053204A934227D9A1F18373A3F5E74383
:102968001D4A934222D31D4B0B441D4A93421FD943
:102978001C4B0B441C4A93421CD31C4B0B441C4A53
:10298800934219D3A1F1B773A3F55853194A934247
:1029980014D3194B0B44194A934211D20722C0E7AA
:1029A8000F22BEE70E22BCE70D22BAE70C22B8E7D9
:1029B8000B22B6E70A22B4E70922B2E70822B0E7F9
:1029C8000622AEE7405327FFFF340C00401E1BFFD2
:1029D8003F420F007F4F120020D6130060B6E5FE7D
:1029E8005FE3160000D3CEFE40771B00C05BB3FE4A
:1029F800C091210020753800E05459FEE09C410048
:102A0800836843F00103836000207047836823F0E4
:102A1800010383600020704782B000230193019B6B
:102A280001330193019BB3F1706F15D80369002B33
:102A3800F5DA00230193890141F020010161019B2E
:102A480001330193019BB3F1706F08D8036913F048
:102A5800200FF4D1002000E0032002B070470320CB
:102A6800FBE782B000230193019B01330193019B93
:102A7800B3F1706F13D80369002BF5DA00230193C3
:102A880010230361019B01330193019BB3F1706F24
:102A980008D8036913F0100FF4D1002000E00320D8
:102AA80002B070470320FBE7D0F800381943C0F89C
:102AB800001800207047000084B0F8B5044607A845
:102AC80080E80E00002306E003F1400204EB8202D6
:102AD8000021516001330E2BF6D99DF8266006BB04
:102AE800D4F8043843F00203C4F80438A36B43F461
:102AF8000013A363A36B23F40023A363A36B23F442
:102B08008023A3630023C4F8003E9DF82130012BE5
:102B180015D19DF81F306BB900212046FFF7C4FF7F
:102B280011E0A36B23F40013A363A36B43F4002306
:102B3800A363E7E701212046FFF7B6FF03E003217F
:102B48002046FFF7B1FF10212046FFF765FF054635
:102B580000B101252046FFF784FF00B1012504F5E7
:102B6800006C0023CCF81030CCF81430CCF81C30B2
:102B78000DE04FF09040C2F8000902E00020C2F8D2
:102B8800000900220A614FF67F328A6001339DF8FE
:102B98001C1099420ED904EB431202F51061D2F8C9
:102BA80000090028EADA002BE3D14FF00060C2F8F0
:102BB8000009E6E700230AE0BBB14FF09047C2F8EE
:102BC800007B002202614FF67F3282600133994216
:102BD80010D904EB431202F53060D2F8007B002FC5
:102BE800EADB0027C2F8007BEBE74FF00067C2F88A
:102BF800007BE6E7DCF8103023F48073CCF8103063
:102C08000023A3616FF0804363619DF81E301BB9F8
:102C1800A36943F01003A361A2690C4B1343A3619A
:102C28009DF822301BB1A36943F00803A361012E6C
:102C380004D02846BDE8F84004B07047A36943F0C3
:102C4800804343F00403A361F3E700BF00383C80EE
:102C5800D0F8083803F00603022B04D0062B04D062
:102C68002BB90020704702207047022070470F20C0
:102C7800704710B591F800C04B78012B23D000F5B0
:102C8800006ED0F81C380CF00F040122A24043EA71
:102C98000243C0F81C3800EB4C10D0F8003B13F48A
:102CA800004F0ED1D0F8003B8A68C2F30A020979B6
:102CB80042EA8142134343F0805343F40043C0F88F
:102CC800003B002010BDD0F81C280CF00F0E03FAB2
:102CD8000EF39BB21343C0F81C3800EB4C10D0F82D
:102CE800003913F4004FECD1D0F800398A68C2F3E8
:102CF8000A02097942EA814242EA8C52134343F0BC
:102D0800805343F40043C0F80039DAE730B40B7855
:102D18004A78012A26D000EB4313D3F8002B002A67
:102D280052DBD0F83C480A7802F00F024FF0010C51
:102D38000CFA02F224EA0242C0F83C28D0F81C2817
:102D4800097801F00F010CFA01FC22EA0C42C0F8E4
:102D58001C28D3F8001B234A0A40C3F8002B002084
:102D680030BC704700EB4313D3F80029002A1EDB60
:102D7800D0F83C580A7802F00F02012404FA02F253
:102D880092B225EA0202C0F83C28D0F81C2809783B
:102D980001F00F018C40A4B222EA0402C0F81C28FA
:102DA800D3F80019104A0A40C3F80029D7E7D3F826
:102DB800002942F00062C3F80029D3F8002942F044
:102DC8008042C3F80029D3E7D3F8002B42F0006211
:102DD800C3F8002BD3F8002B42F08042C3F8002B35
:102DE8009FE700BF0078F3EF007833EC10B483B0AE
:102DF800024600230193487801280BD00B7802EB98
:102E08004313D3F8000B00282DDB002003B05DF836
:102E1800044B70470B7802EB4313D3F80049002C9E
:102E280001DB0020F2E7D3F8004944F00064C3F85E
:102E380000490B7802EB4313D3F8004944F080446F
:102E4800C3F80049019B01330193019C42F21073BE
:102E58009C42DBD80B7802EB4313D3F80039002BE4
:102E6800F0DB0020D2E7D3F8000B40F00060C3F895
:102E7800000B0B7802EB4313D3F8000B40F08040B3
:102E8800C3F8000B019B01330193019842F21073C0
:102E9800984208D80B7802EB4313D3F8003B002B79
:102EA800F0DB0020B2E70120B0E710B59DF808403C
:102EB80084B903334FEA930E4FF0000C08E000EB9F
:102EC800023303F5805351F8044B1C600CF1010CDC
:102ED800F445F4D3002010BDF0B583B00C784B78DE
:102EE800012B2DD000EB441C0CF530631D696FF3EA
:102EF80012051D611D696FF3DC451D61002C40F052
:102F0800CE800C690CB18C680C618C680C621D69F0
:102F1800C4F312042C431C611C6944F400241C6192
:102F2800012A00F0DF800B79012B00F0E180DCF84A
:102F3800003B43F00443CCF8003B002003B0F0BD55
:102F48000B6973BB00EB4413D3F810596FF3DC45DE
:102F5800C3F81059D3F8105945F40025C3F810598F
:102F6800D3F810596FF31205C3F81059012A54D039
:102F780000EB4414D4F8003943F00443C4F8003992
:102F88000B79012B72D00B69002BD6D0D0F83438CE
:102F9800097801F00F0101228A401343C0F8343840
:102FA800CBE700EB441303F510631D696FF31205BB
:102FB8001D611D696FF3DC451D6184B90E698D685B
:102FC800AE4200D90D611D6945F400251D611D69DA
:102FD8000E69C6F3120C45EA0C051D61C6E70D69BA
:102FE8008E683544013DB5FBF6F51E691FFA85FC70
:102FF800494F07EAC54535431D610D79012DE6D1D5
:103008001D6925F0C0451D611D694FEA4C7C0CF017
:10301800C04C45EA0C051D61D9E7CB691BB100EB33
:103028004412C2F814390B79012B08D000EB441470
:10303800D4F8003943F00443C4F800397DE7D0F8E8
:10304800083813F4807F08D100EB4412D2F8003915
:1030580043F00053C2F80039E8E700EB4412D2F815
:10306800003943F08053C2F80039DFE7D0F8083858
:1030780013F4807F0CD1D4F8003943F00053C4F81E
:10308800003900920B8A0A78C968FFF70EFF54E7E7
:10309800D4F8003943F08053C4F80039F1E70C69DB
:1030A80054B91C698D68C5F312052C431C611C6951
:1030B80044F400241C6133E78D682C44013CB4FBC4
:1030C800F5F4A4B204FB05F50D621D69124E06EA7B
:1030D800C4442C431C611C690D6AC5F312052C43BA
:1030E8001C611DE7CA68002A3FF41DAF5A611AE740
:1030F800D0F8083813F4807F06D1DCF8003B43F0A1
:103108000053CCF8003B12E7DCF8003B43F0805357
:10311800CCF8003B0BE700BF0000F81F10B5844651
:1031280008464FEA920E02F00302002305E00CF570
:103138008051096840F8041B01337345F7D37AB10D
:103148000CF5805CDCF800400021CBB2DB0024FAEF
:1031580003F300F8013B0131013A92B2002AF4D19D
:1031680010BD0B784A78012A14D000EB4310D0F830
:10317800002B002A06DB2BB1D0F8003B23F080435C
:10318800C0F8003BD0F8003B43F40013C0F8003B04
:103198000020704700EB4310D0F80029002A06DB16
:1031A8002BB1D0F8003923F08043C0F80039D0F8AB
:1031B800003943F40013C0F80039E9E70B784A787E
:1031C800012A0ED000EB4310D0F8003B23F4001383
:1031D800C0F8003B0B79023BDBB2012B15D900206C
:1031E800704700EB4310D0F8003923F40013C0F8FF
:1031F80000390B79023BDBB2012BF0D8D0F800394B
:1032080043F08053C0F80039E9E7D0F8003B43F0B9
:103218008053C0F8003BE2E7D0F8003823F4FE639F
:10322800C0F80038D0F80038090101F4FE610B43FA
:10323800C0F8003800207047D0F8003E23F00303A0
:10324800C0F8003ED0F8043823F00203C0F8043870
:1032580000207047D0F8003E23F00303C0F8003E7A
:10326800D0F8043843F00203C0F80438002070474F
:103278004269806910407047D0F8183800F500603E
:10328800C0691840000C7047D0F8183800F5006085
:10329800C069184080B2704700EB4111D1F8082B83
:1032A80000F50060406910407047D0F81028D0F849
:1032B800343801F00F0C23FA0CF3DB01DBB21343B3
:1032C80000EB411000F510608068184070474069B5
:1032D80000F00100704738B50546C36823F0C043C5
:1032E800C360012913D019BBC36843F08043C3608E
:1032F80000240A20FDF7E2FA0A342846FFF7E7FF20
:1033080008B1C72CF5D9C82C14D0002038BDC36823
:1033180043F00053C36000240A20FDF7CFFA0A34B3
:103328002846FFF7D4FF0128EDD0C72CF4D9EAE7E7
:103338000120EBE70120E9E7D0F800396FF30A0331
:10334800C0F80039D0F8043843F48073C0F8043862
:103358000020704710B4046C154B9C4203D9D0F878
:10336800003B002B16DB0024C0F8104BD0F8104BA4
:1033780044F40024C0F8104BD0F8104B44F0180463
:10338800C0F8104BD0F8104B44F0C044C0F8104BB4
:10339800012903D000205DF8044B7047C0F8142BB6
:1033A800D0F8003B43F08023C0F8003BF2E700BFB1
:1033B8000A30544F034AD2F8883043F47003C2F8F5
:1033C8008830704700ED00E008B500220F4910482A
:1033D80000F004FC70B90F490D4800F016FC60B904
:1033E8000D490B4800F039FA50B9094800F02DFC96
:1033F80048B908BDFDF776F8EDE7FDF773F8EFE794
:10340800FDF770F8F1E7FDF76DF8F2E7DC00002052
:10341800E0A30020500000209400002010B5D0F850
:10342800D43203F1B00250F822408CB100EB820094
:1034380043687BB194F80002FF280DD09B6894F88C
:10344800012221469847FF2384F80032002010BD4E
:103458000320FCE70020FAE70020F8E70A230380AE
:103468000048704788000020F8B506460F4F8221B3
:10347800384600F0A2FD05460121384600F09DFDC2
:1034880004468121384600F098FD0DB11022AA713A
:103498001CB1402222710022627118B140220271CF
:1034A80000224271432333800048F8BD0C000020FD
:1034B800F8B506460F4F8221384600F07EFD0546D6
:1034C8000121384600F079FD04468121384600F094
:1034D80074FD0DB11022AA711CB140222271002284
:1034E800627118B140220271002242714323338075
:1034F8000048F8BD0C000020F8B506460F4F8221A1
:10350800384600F05AFD05460121384600F055FDC1
:1035180004468121384600F050FD0DB11022AA71F1
:103528001CB1002222710222627118B100220271BC
:1035380002224271432333800048F8BD0C0000206A
:1035480038B5D0F8D432B03350F8235095B104468A
:1035580000F0ECFAC5F80C02D4F8D432B03304EB1E
:1035680083046368DB6805F50371D5F8040298479E
:10357800002038BD0320FCE738B5D0F8C852D0F891
:10358800D432B03350F8234084B301F00F0303EB77
:10359800830200EB820252694AB103EBC30C05EBCC
:1035A8008C05ED69B2FBF5FC05FB1C2292B10023EA
:1035B800C4F81432D0F8D432B03300EB8300436837
:1035C8001B69ABB10A4604F50471D4F808029847A0
:1035D800002038BD03EB830300EB830300245C6108
:1035E8002346224600F0EAFA2046F2E70320F0E7F5
:1035F8000020EEE7F0B583B0D0F8D43203F1B00282
:1036080050F8227000228DF80720ADF80420002F12
:1036180078D004460D46097811F0600634D0202E83
:1036280069D1EA882AB311F0800F0ED16B7887F838
:103638000032EA883F2A1AD8D2B287F801223946DE
:10364800204601F025F9002659E0B03300EB83034A
:103658005B689B68394668789847EA88072A28BFD4
:1036680007223946204601F0FDF8002647E04022AF
:10367800E3E7B03300EB83035B689B6800222946CD
:103688006878984700263AE06F780B2F2ED8DFE845
:1036980007F006362D2D2D2D2D2D2D2D152490F8C6
:1036A8009C32032B04D0294600F0C4FC032626E0F4
:1036B800022201A901F0D6F83E4620E090F89C329B
:1036C800032B04D0294600F0B5FC032617E001229D
:1036D8000DF1070101F0C6F811E090F89C32032BB8
:1036E8000DD0294600F0A6FC032608E0294600F084
:1036F800A1FC032603E0294600F09CFC0326304683
:1037080003B0F0BD0326FAE738B50446812100F07E
:1037180035FA002584F837500121204600F02EFAAA
:1037280084F877518221204600F028FA84F84B501B
:103738006564D4F8D43203F1B00254F822209AB167
:10374800B03304EB83035B685B689847D4F8D432E2
:10375800B03354F8230000F0F3F9D4F8D432B0337E
:1037680044F82350C4F8BC52002038BD70B5044654
:103778004FF4077000F0E0F9002849D005464FF4EF
:103788000772002101F0DDF8D4F8D432B03344F8E0
:103798002350C4F8BC52237C002B41D14FF4007352
:1037A80002228121204600F0DEF9012684F83760E4
:1037B8004FF4007302223146204600F0D4F984F811
:1037C800776110236364082303228221204600F0D6
:1037D800CAF9012384F84B300026C5F80462D4F8EE
:1037E800D432B03304EB83035B681B689847C5F891
:1037F8001462C5F81862D5F8042262B3257C1DBB93
:103808004FF400730121204600F0E0F9284670BD0E
:10381800D4F8D432B033002244F823200225F5E747
:10382800402302228121204600F09DF9012684F8D8
:103838003760402302223146204600F094F984F88C
:10384800776110236364BEE740230121204600F01E
:10385800BDF90025DAE70225D8E739B1D0F8D43226
:10386800B03300EB830041600020704703207047AD
:10387800D0F8D432B03350F823302BB1C3F8081243
:10388800C3F810220020704703207047D0F8D432C4
:10389800B03350F823301BB1C3F80412002070472E
:1038A8000320704710B5D0F8D432B03350F8232035
:1038B80092B1047C44B94FF40073D2F80422012178
:1038C80000F084F9204610BD4023D2F804220121DB
:1038D80000F07CF90024F5E70324F3E700207047A3
:1038E800002070470020704710B50968FCF70EFDEE
:1038F800044C05492046FFF7C9FF2046FFF7D2FFD1
:10390800002010BDE0A30020BCAE002010B5064C7E
:10391800002206492046FFF7ABFF05492046FFF77E
:10392800B5FF002010BD00BFE0A30020BCA600200A
:10393800BCAE002030B589B00023039304930593EF
:10394800069307930368B3F1A04F01D009B030BDC7
:1039580003AA00250195174C236B43F00103236349
:10396800236B03F001030193019B4FF4C0530393AE
:1039780002230493032306930A23079311460E4850
:10398800FDF730FA636B43F0800363630295636C61
:1039980043F480436364636C03F480430293029BA3
:1039A8002A4629464320FCF7F1FF4320FCF7FEFF97
:1039B800CCE700BF003802400000024008B500F222
:1039C8009C41D0F8E00400F056F908BD08B501EBB9
:1039D800C10300EB8303D3F86022D0F8E00400F0C1
:1039E80018FA08BD08B501EBC10300EB83031A6A96
:1039F800D0F8E00400F070FA08BD08B5D0F8E0048B
:103A080000F0B5F908BD10B50446C379022B09D1F9
:103A18000121D4F8E00400F08DF9D4F8E00400F0B6
:103A280056F910BDFCF75EFDF2E7000010B504463C
:103A3800D0F8E00400F081F92268D2F8003E43F0A3
:103A48000103C2F8003EE37A23B1034A136943F045
:103A58000603136110BD00BF00ED00E008B5D0F803
:103A6800E00400F078F908BD08B5D0F8E00400F0EB
:103A7800A4F908BD08B5D0F8E00400F088F908BD3D
:103A880008B5D0F8E00400F0AEF908BD08B5D0F8E4
:103A9800E00400F0AAF908BD02780AB100207047D6
:103AA80010B503461548C0F8E034C3F8C8024FF013
:103AB800A0430360042303710222C27100238371AF
:103AC80042728372C37203738373C373FDF7F8FA88
:103AD80080B90A4C80212046FEF7C0F84022002118
:103AE8002046FEF795F8802201212046FEF790F83F
:103AF800002010BDFCF7F6FCEBE700BFDCB80020A7
:103B0800D0F8C83211F0800F08D101F07F0101EB25
:103B1800C10103EB810393F85602704701F07F015E
:103B280001EBC10103EB8103987D704708B5D0F81C
:103B3800C802FDF7C9FC08BD00487047BCB60020A4
:103B48007047032805D8DFE800F0050402050120C6
:103B580070470320704708B5D0F8C802FDF731FB5D
:103B6800FFF7EFFF08BD08B594461A466346D0F83C
:103B7800C802FDF706FCFFF7E4FF08BD08B5D0F85A
:103B8800C802FDF744FCFFF7DCFF08BD08B5D0F814
:103B9800C802FDF7C7FCFFF7D4FF08BD08B5D0F889
:103BA800C802FDF702FDFFF7CCFF08BD08B5D0F845
:103BB800C802FDF7D3FBFFF7C4FF08BD08B5D0F86E
:103BC800C802FDF78AFCFFF7BCFF08BD08B5D0F8AE
:103BD800C802FDF754FCFFF7B4FF08BD98B108B55B
:103BE80003460020C3F8B802C3F8C402C3F8D002E1
:103BF80009B1C3F8B412012183F89C121A7018464F
:103C0800FFF74AFF08BD0320704710B582B00023B4
:103C1800ADF80630B9B10446C0F8B812D0F8D422CD
:103C2800CB6A43B1AE3250F82230DB6A0DF10600A0
:103C38009847C4F8D002D4F8D8320133C4F8D8323F
:103C4800002002B010BD0320FBE708B5FFF783FF93
:103C580008BD08B5D0F8B83213B11B68984708BD3D
:103C68000020FCE708B5D0F8B8325B68984700B97F
:103C780008BD0320FCE738B5044600F2AA2528460B
:103C880000F0C4F90123C4F89432B4F8B032C4F88F
:103C9800983294F8AA1201F01F03012B07D0022BC7
:103CA8000AD073B92946204600F084FB38BD29465E
:103CB800204600F0BAFBF9E72946204600F0F7FB5A
:103CC800F4E701F080012046FFF760FFEEE7F8B562
:103CD8000446012380F89C320023C0F894324360E4
:103CE800C0F8A43280F8A032D0F8B832E3B15B68EB
:103CF800E3B1002198470746D0B940230022114676
:103D08002046FFF730FF012684F863614025A4F8B8
:103D180060512B46002280212046FFF724FF84F8BB
:103D2800236025843846F8BD0027E6E70027E4E746
:103D38000327E2E701740020704790F89C32042BB7
:103D480004D090F89C32DBB280F89D32042380F8CE
:103D58009C320020704790F89C32042B01D0002040
:103D6800704790F89D32DBB280F89C32F7E708B5CF
:103D780090F89C32032B01D0002008BDD0F8B8324F
:103D8800002BF9D0DB69002BF6D09847F4E708B58B
:103D9800D0F8D432AE3350F8233053B190F89C2287
:103DA800032A01D0002008BD1B6A23B198470020D0
:103DB800F9E70320F7E70020F5E708B5D0F8D43293
:103DC800AE3350F8233053B190F89C22032A01D027
:103DD800002008BD5B6A23B198470020F9E703205B
:103DE800F7E70020F5E70020704708B5012380F8C1
:103DF8009C32D0F8B83223B15B680179984710B982
:103E080008BD0020FCE70320FAE7002070470020E7
:103E1800704738B504460D46002944D1D0F894328D
:103E2800032B01D0084638BDD0F85831B0F86021CE
:103E3800934209D890F8AA3203F01F03012B12D03D
:103E4800022B1ED0084613E09B1AC0F85831D0F850
:103E580064111144C0F864119A4238BF1A4600F040
:103E680028FD2846DFE790F8AE12FFF7CEFF18B915
:103E780094F89C32032B09D0204600F022FD2846F6
:103E8800D1E790F8AE12FFF7C2FFF0E700F1AE03FA
:103E980054F823301A69002AEED0C4F8D4021B69FA
:103EA80020469847E8E701F07F01FFF7B0FF88B99F
:103EB80094F89C32032BB6D100F1AE0354F82330AA
:103EC8009A69002AAFD0C4F8D4029B6929462046D3
:103ED8009847A8E70020A6E738B504460D4600290C
:103EE8004BD1D0F89432022B07D094F8A00218B125
:103EF800002384F8A032284638BD8269038C9A4290
:103F08000DD89A4219D094F89C32032B29D08021DD
:103F18002046FFF73BFE204600F0DEFCE5E7D21A1C
:103F28008261416A1944416200F0AAFC00231A46E2
:103F380019462046FFF74AFED7E742699342E2D87E
:103F4800D0F898329A42DED20022114600F098FC4E
:103F58000021C4F898120B460A462046FFF736FEA1
:103F6800C3E7D4F8B832DA68002AD0D00022C4F8FF
:103F7800D422DB6820469847C9E741F08001FFF763
:103F880046FF88B994F89C32032BB5D100F1AE03F3
:103F980054F823305A69002AAED0C4F8D4025B69B9
:103FA800294620469847A7E70020A5E70B8802780E
:103FB80013440B80037818447047428803789A4268
:103FC80018D930B583B004460D46ADF8063063887D
:103FD800BDF806209A420AD20DF10601FFF7E6FF66
:103FE8004378052BF3D18378AB42F0D100E0002071
:103FF80003B030BD002070470346002002E00130C6
:10400800C0B201331A78002AF9D170470B780370CF
:104018004B7843708B78CA7843EA022343800B7944
:104028004A7943EA022383808B79CA7943EA0223D7
:10403800C380704710B504468021FFF7A7FD002113
:104048002046FFF7A3FD10BD30B583B004460D46EA
:104058000023ADF806304A88130A013B062B00F20C
:10406800AA80DFE803F0041E32A8A88C9900D0F8D3
:10407800B4321B680DF10601007C9847EA88002AD3
:1040880000F0A380BDF80630002B00F099809A421A
:1040980028BF1A46ADF806200146204600F0E2FB8C
:1040A8008CE0037C43B9D0F8B8329B6A0DF1060066
:1040B800984702234370E1E7D0F8B832DB6A0DF184
:1040C8000600984702234370D8E7D2B2052A52D88F
:1040D800DFE802F003101D2A3744D0F8B4325B68D9
:1040E80023B10DF10601007C9847C7E72946FFF781
:1040F800A1FF63E0D0F8B4329B6823B10DF106014B
:10410800007C9847BAE72946FFF794FF56E0D0F8B5
:10411800B432DB6823B10DF10601007C9847ADE7A6
:104128002946FFF787FF49E0D0F8B4321B6923B16D
:104138000DF10601007C9847A0E72946FFF77AFFB2
:104148003CE0D0F8B4325B6923B10DF10601007C84
:10415800984793E72946FFF76DFF2FE0D0F8B43270
:104168009B6923B10DF10601007C984786E7294633
:10417800FFF760FF22E02946FFF75CFF1EE0037CA3
:1041880033B9D0F8B8325B6B0DF10600984775E784
:104198002946FFF74FFF11E0037C43B9D0F8B83246
:1041A8001B6B0DF1060098470723437066E7294605
:1041B800FFF740FF02E02946FFF73CFF03B030BDA0
:1041C80029462046FFF736FFF8E7204600F079FB3E
:1041D800F4E738B504468B88F3B9CB88E3B94B8844
:1041E8007F2B19D803F07F0590F89C32032B0CD055
:1041F80080F89E522946FFF7D9FC204600F061FB63
:1042080035B1022384F89C3209E0FFF713FF06E07A
:10421800012384F89C3202E02046FFF70BFF38BDEB
:1042280070B504460E468D782F4B1D70012D10D8A1
:1042380090F89C32DAB2022B0FD0032A26D0FFF76F
:10424800F9FE294B19782046FFF70CFD032528466F
:1042580070BDFFF7EFFE0325F9E7A5B145602946D4
:10426800FFF7F7FC054638B131462046FFF7E2FE76
:10427800022384F89C32EAE7204600F022FB03235D
:1042880084F89C32E3E700F01CFBE0E7CDB141681D
:104298008D4225D0C9B2FFF7E5FC134B1978616050
:1042A8002046FFF7D6FC0546B0B131462046FFF759
:1042B800C1FE21792046FFF7D5FC022384F89C3201
:1042C800C5E7022380F89C3245602946FFF7CAFCFF
:1042D800204600F0F6FABAE7204600F0F2FAB6E710
:1042E80000F0EFFA0025B2E7C0BD002008B5CB8882
:1042F800012B0BD190F89C32DAB2022B09D9032A90
:1043080011D10122011D00F0ADFA01E0FFF792FE84
:1043180008BD52B23AB10146002341F8083F0122D4
:1043280000F0A0FAF4E7FFF785FEF1E708B590F88A
:104338009C32013B022B12D8CB88022B0CD10123D3
:10434800C360D0F8A4320BB10323C360022200F18A
:104358000C0100F087FA08BDFFF76CFEFBE7FFF7DA
:1043680069FEF8E708B54B88012B04D0022B07D06B
:10437800FFF760FE08BDC0F8A43200F0A2FAF9E722
:104388008B881B0A80F8A03200F09BFAF2E708B588
:1043980090F89C32013B022B09D84B88012B00D0A6
:1043A80008BD0023C0F8A43200F08BFAF8E7FFF745
:1043B80041FEF5E738B50C7804F06004202C06D0EF
:1043C800402C04D06CB1FFF735FE002407E0D0F88C
:1043D800D432AE3350F823309B68984704462046C1
:1043E80038BD4D78092D1DD8DFE805F012191C16C7
:1043F8001C08051C0F0BFFF727FEF0E7FFF7E9FE87
:10440800EDE7FFF70DFF0446E9E7FFF76FFFE6E783
:10441800FFF78CFF2C46E2E7FFF7A4FFDFE7FFF783
:10442800B6FFDCE7FFF706FED9E770B505460C4690
:104438000B7803F06003202B07D0402B05D023B165
:10444800FFF7F8FD0026304670BD95F89C32013B19
:10445800022B26D82179012905D921462846FFF7BC
:10446800E9FD0026EFE72846FFF7CFFC68B900F121
:10447800AE0255F82220916889B1C5F8D402936834
:10448800214628469847064600E00326E388002B85
:10449800D9D1002ED7D1284600F013FAD3E7032646
:1044A800F4E721462846FFF7C5FD0026CBE72DE9AE
:1044B800F04106460D468B88DFB20C7804F06004A4
:1044C800202C08D0402C06D0DCB1FFF7B3FD002427
:1044D8002046BDE8F08139463046FFF798FC04468F
:1044E800002840F0FD80C6F8D40200F1AE0356F86B
:1044F80023309B68002BEBD029463046984704466A
:10450800E6E791F80180B8F1010F31D0B8F1030F57
:1045180005D0B8F1000F67D0FFF78CFDD8E790F809
:104528009C32DAB2022B04D0032A12D0FFF782FDA4
:10453800CEE70FB1802F04D129463046FFF77AFD28
:10454800C6E73946FFF722FB80213046FFF71EFBFE
:10455800BEE74B8823B91FB1802F01D0CB881BB190
:10456800304600F0AEF9B3E73946FFF70FFBF7E73F
:1045780090F89C32DAB2022B04D0032A12D0FFF74B
:1045880059FDA5E70FB1802F04D129463046FFF722
:1045980051FD9DE73946FFF7F9FA80213046FFF7CC
:1045A800F5FA95E74B88002B92D117F07F0F17D1BA
:1045B800304600F086F939463046FFF728FC0028D7
:1045C80086D1C6F8D40200F1AE0256F822209268CD
:1045D800002A00F08780294630469047044677E74E
:1045E8003946FFF7DBFAE3E790F89C22D1B2022ABA
:1045F80006D003292AD02946FFF71CFD444667E761
:104608000FB1802F14D113F0800F16D107F07F0758
:1046180007EB8707B90001F5A8713144043100237D
:1046280001F80E3F0222304600F01CF944464FE7DD
:104638002946FFF7FFFC44464AE707F07F0707EBE8
:104648008707B900103131440431E8E75BB2002B29
:1046580020DB07F00F0202EB820200EB820292F8E5
:1046680063412CB3002B27DB07F07F0303EB8303A5
:104678009C0004F5A874344404340FB1802F24D16D
:104688000023A373022204F10E01304600F0EAF879
:1046980044461DE707F00F0202EB820200EB82029C
:1046A80092F82340002CDDD12946FFF7C3FC0FE721
:1046B8002946FFF7BFFC0BE707F07F0303EB8303F3
:1046C8009C00103434440434D7E739463046FFF7A9
:1046D80017FA10B10123A373D4E70023A373D1E71A
:1046E8000024F5E60446F3E600B370B50D46164619
:1046F8000446FFF781FC01304300B3F5007F06D87C
:104708009BB233802B7003236B7002230AE04FF4B3
:104718000073F6E7EA5401345A1CD2B20021A954B6
:104728000233DBB22278002AF4D170BD7047000052
:1047380012230B8000487047C800002004230B8018
:1047480000487047C4000020002393421ED200B5E1
:1047580010E00CF1370C01F813C000014FEA430CCC
:104768000CF1010C4FF0000E01F80CE00133DBB244
:10477800934209D24FEA107CB0F1204FE9D20CF1F4
:10478800300C01F813C0E8E75DF804FB704700003F
:1047980038B50B4BD3F8100AD3F8144AD3F8183AA3
:1047A800C01800D138BD074D08222946FFF7CCFFB5
:1047B800042205F110012046FFF7C6FFF2E700BF0B
:1047C8000070FF1FAA00002008B51A230B80FFF70E
:1047D800DFFF014808BD00BFA800002008B50A4651
:1047E80028B905490548FFF77FFF034808BD024976
:1047F8000248FFF779FFF8E7C4BD0020E84C00083D
:1048080010B50A46034C21460348FFF76DFF2046C2
:1048180010BD00BFC4BD0020004D000808B50A4601
:1048280028B905490548FFF75FFF034808BD024955
:104838000248FFF759FFF8E7C4BD0020144D0008EF
:1048480008B50A4628B905490548FFF74DFF03484A
:1048580008BD02490248FFF747FFF8E7C4BD00203A
:10486800204D000808B513460222C0F8942243617F
:10487800416283610A460021FFF7A0F9002008BDC4
:1048880008B513460A460021FFF798F9002008BD2D
:1048980008B513460322C0F89422C0F85431C0F872
:1048A8006411C0F858310A460021FFF78FF900203B
:1048B80008BD08B513460A460021FFF787F900200E
:1048C80008BD08B50422C0F8942200231A461946E8
:1048D800FFF774F9002008BD08B50522C0F8942236
:1048E80000231A461946FFF771F9002008BD000099
:1048F800DFF834D0FEF75EFD0C480D490D4A002361
:1049080002E0D458C4500433C4188C42F9D30A4A7C
:104918000A4C002301E013600432A242FBD300F0EA
:1049280019F8FBF737FE704700000220000000204E
:10493800F8000020404D0008F8000020C4BF002007
:10494800FEE702440346934200D1704703F8011B77
:10495800F9E7000070B50D4B0D4D5B1B9C10002650
:10496800A64209D100F0A4F90A4D0B4B5B1B9C1021
:104978000026A64205D170BD55F8043B984701367C
:10498800EEE755F8043B98470136F2E7384D000842
:10499800384D0008384D00083C4D00080A44914243
:1049A80000F1FF3300D1704710B511F8014B03F83F
:1049B800014F9142F9D110BD2DE9F047089D0F46EE
:1049C80004468C46002B48D18A42164661D9B2FA71
:1049D80082F34BB1C3F1200201FA03FC20FA02F280
:1049E8009E4042EA0C0C9C404FEA164EB7B2BCFB04
:1049F800FEF1220C0EFB11CC42EA0C4201FB07F03F
:104A0800904209D9B21801F1FF3C80F0EE80904243
:104A180040F2EB8002393244121AA4B2B2FBFEF023
:104A28000EFB102244EA024400FB07F7A74209D90B
:104A3800341900F1FF3280F0DA80A74240F2D780C3
:104A48003444023840EA0140E41B00211DB1DC4037
:104A58000023C5E90043BDE8F0878B4206D90DB1B4
:104A6800C5E9000100210846BDE8F087B3FA83F1E3
:104A7800002948D1BB4202D3824200F20781841A3E
:104A880067EB030201209446002DE4D0C5E9004CF1
:104A9800E1E7002A00F09280B2FA82F3002B40F09E
:104AA800A8808A1A4FEA164E1FFA86FC0121200CAC
:104AB800B2FBFEF70EFB172240EA02420CFB07F09E
:104AC800904207D9B21807F1FF3802D2904200F29B
:104AD800E2804746121AA4B2B2FBFEF00EFB102287
:104AE80044EA02440CFB00FCA44507D9341900F140
:104AF800FF3202D2A44500F2CB801046A4EB0C048E
:104B080040EA0740A2E7C1F120068B4022FA06FCE2
:104B18004CEA030C07FA01F420FA06F3F7404FEACF
:104B28001C49234300FA01F81FFA8CFEB7FBF9F081
:104B38001C0C09FB107744EA074400FB0EF7A74258
:104B480002FA01F20AD91CEB040400F1FF3A80F0E2
:104B58009B80A74240F2988002386444E41B9FB2CD
:104B6800B4FBF9F309FB134447EA044403FB0EFEC4
:104B7800A64509D91CEB040403F1FF3780F08280B5
:104B8800A6457FD9023B644443EA0040A4EB0E04E7
:104B9800A0FB02E7BC427346B94663D360D05DB15F
:104BA800B8EB030264EB090404FA06F622FA01F3EF
:104BB8001E43CC40C5E9006400214CE76208480860
:104BC80042EAC1710B0C43EA00438AB242EA03424B
:104BD800B3FBF6F1E407B4463746B6461F23B0FBED
:104BE800F6F0D21B41EA004161E7614614E710463E
:104BF80028E7C3F1200120FA01F29E4027FA01F1CB
:104C08009F403A434FEA164E1FFA86FCB1FBFEF767
:104C18000EFB1710110C41EA004107FB0CF8884500
:104C280004FA03F43AD9711807F1FF3001D2884524
:104C38001FD8A1EB0801B1FBFEF808FB0CF70EFB2F
:104C4800181192B242EA0142BA422FD2B21808F1C0
:104C5800FF31C6D2BA42C4D2A8F102013244C0E739
:104C6800F0459CD2BEEB020367EB0C070138B9464E
:104C780095E7A6EB08084144B81EB1FBFEF808FB0F
:104C88000CF7DCE73B467FE7504667E70846FBE65C
:104C98003444023832E7023F32441BE7A1EB0801F3
:104CA8003846B1FBFEF808FB0CF7C8E7414698E721
:104CB800F8B500BFF8BC08BC9E467047F8B500BF01
:084CC800F8BC08BC9E467047D1
:104CD000000610160006101600000000000000007C
:104CE000010203040607080953544D333220566964
:104CF000727475616C20436F6D506F7274000000A8
:104D000053544D6963726F656C656374726F6E693D
:104D10006373000043444320436F6E66696700007D
:104D200043444320496E7465726661636500000008
:084D300090FCFF7F0100000070
:044D3800F10100087D
:044D3C00CD0100089D
:104D400001000000100000000024F40009024300EC
:104D5000020100C032090400000102020100052422
:104D600000100105240100010424020205240600AC
:104D7000010705820308001009040100020A00006F
:104D80000007050102400000070581024000000005
:104D90007537000811370008FD35000800000000D5
:104DA000253400088135000849350008000000005E
:104DB000000000000000000001350008B9340008C0
:104DC00071340008653400080A0600020000004043
:104DD0000100000015390008E5380008E93800082E
:104DE000F1380008ED3800081A0300000000000048
:104DF00000000000000000000000000000000000B3
:104E00000000000004030904120100020202004035
:104E100083044057000201020301000039470008E3
:104E20004547000809480008E5470008D147000841
:084E300025480008494800086C
:04000005080048F9AE
:00000001FF
